{
  "contractName": "Test",
  "abi": [
    {
      "inputs": [],
      "payable": false,
      "stateMutability": "nonpayable",
      "type": "constructor"
    },
    {
      "constant": false,
      "inputs": [
        {
          "name": "a",
          "type": "uint128"
        },
        {
          "name": "b",
          "type": "uint128"
        }
      ],
      "name": "add",
      "outputs": [
        {
          "name": "",
          "type": "uint128"
        }
      ],
      "payable": false,
      "stateMutability": "nonpayable",
      "type": "function"
    },
    {
      "constant": false,
      "inputs": [],
      "name": "increment",
      "outputs": [
        {
          "name": "",
          "type": "uint256"
        }
      ],
      "payable": false,
      "stateMutability": "nonpayable",
      "type": "function"
    }
  ],
  "bytecode": "0x608060405234801561001057600080fd5b5060008081905550610162806100276000396000f30060806040526004361061004c576000357c0100000000000000000000000000000000000000000000000000000000900463ffffffff168063d09de08a14610051578063feb993901461007c575b600080fd5b34801561005d57600080fd5b5061006661010f565b6040518082815260200191505060405180910390f35b34801561008857600080fd5b506100d560048036038101908080356fffffffffffffffffffffffffffffffff16906020019092919080356fffffffffffffffffffffffffffffffff169060200190929190505050610129565b60405180826fffffffffffffffffffffffffffffffff166fffffffffffffffffffffffffffffffff16815260200191505060405180910390f35b600060016000808282540192505081905550600054905090565b60008183019050929150505600a165627a7a723058208bc1693c95f6aa7707f15e447fac270b3f7624d61476185b3f2062f23250a29a0029",
  "source": "pragma solidity ^0.4.15;\ncontract Test {\n  uint256 num;\n  // constructor\n  function Test(){\n    num = 0;\n  }\n  // uint128 add Test\n  function add(uint128 a, uint128 b) public returns(uint128){\n    return a + b;\n  }\n  // increment Test\n  function increment() public returns(uint256) {\n    num += 1;\n    return num;\n  }\n}\n",
  "sourcePath": "/Users/HIROTSUGU/DigitalCurrency/TruffleProjects/MakeTransactionsOnLocal/contracts/Test.sol",
  "compiler": {
    "name": "solc",
    "version": "0.4.23+commit.124ca40d.Emscripten.clang"
  },
  "schemaVersion": "2.0.0",
  "updatedAt": "2018-05-04T13:46:29.424Z"
}